{"abi":[{"type":"function","name":"CANCEL_AUTHORIZATION_TYPEHASH","inputs":[],"outputs":[{"name":"","type":"bytes32","internalType":"bytes32"}],"stateMutability":"view"},{"type":"function","name":"DOMAIN_SEPARATOR","inputs":[],"outputs":[{"name":"","type":"bytes32","internalType":"bytes32"}],"stateMutability":"view"},{"type":"function","name":"PERMIT_TYPEHASH","inputs":[],"outputs":[{"name":"","type":"bytes32","internalType":"bytes32"}],"stateMutability":"view"},{"type":"function","name":"RECEIVE_WITH_AUTHORIZATION_TYPEHASH","inputs":[],"outputs":[{"name":"","type":"bytes32","internalType":"bytes32"}],"stateMutability":"view"},{"type":"function","name":"TRANSFER_WITH_AUTHORIZATION_TYPEHASH","inputs":[],"outputs":[{"name":"","type":"bytes32","internalType":"bytes32"}],"stateMutability":"view"},{"type":"function","name":"allowance","inputs":[{"name":"owner","type":"address","internalType":"address"},{"name":"spender","type":"address","internalType":"address"}],"outputs":[{"name":"","type":"uint256","internalType":"uint256"}],"stateMutability":"view"},{"type":"function","name":"approve","inputs":[{"name":"spender","type":"address","internalType":"address"},{"name":"value","type":"uint256","internalType":"uint256"}],"outputs":[{"name":"","type":"bool","internalType":"bool"}],"stateMutability":"nonpayable"},{"type":"function","name":"authorizationState","inputs":[{"name":"authorizer","type":"address","internalType":"address"},{"name":"nonce","type":"bytes32","internalType":"bytes32"}],"outputs":[{"name":"","type":"bool","internalType":"bool"}],"stateMutability":"view"},{"type":"function","name":"balanceOf","inputs":[{"name":"account","type":"address","internalType":"address"}],"outputs":[{"name":"","type":"uint256","internalType":"uint256"}],"stateMutability":"view"},{"type":"function","name":"blacklist","inputs":[{"name":"_account","type":"address","internalType":"address"}],"outputs":[],"stateMutability":"nonpayable"},{"type":"function","name":"blacklister","inputs":[],"outputs":[{"name":"","type":"address","internalType":"address"}],"stateMutability":"view"},{"type":"function","name":"burn","inputs":[{"name":"_amount","type":"uint256","internalType":"uint256"}],"outputs":[],"stateMutability":"nonpayable"},{"type":"function","name":"cancelAuthorization","inputs":[{"name":"authorizer","type":"address","internalType":"address"},{"name":"nonce","type":"bytes32","internalType":"bytes32"},{"name":"v","type":"uint8","internalType":"uint8"},{"name":"r","type":"bytes32","internalType":"bytes32"},{"name":"s","type":"bytes32","internalType":"bytes32"}],"outputs":[],"stateMutability":"nonpayable"},{"type":"function","name":"cancelAuthorization","inputs":[{"name":"authorizer","type":"address","internalType":"address"},{"name":"nonce","type":"bytes32","internalType":"bytes32"},{"name":"signature","type":"bytes","internalType":"bytes"}],"outputs":[],"stateMutability":"nonpayable"},{"type":"function","name":"configureMinter","inputs":[{"name":"minter","type":"address","internalType":"address"},{"name":"minterAllowedAmount","type":"uint256","internalType":"uint256"}],"outputs":[{"name":"","type":"bool","internalType":"bool"}],"stateMutability":"nonpayable"},{"type":"function","name":"currency","inputs":[],"outputs":[{"name":"","type":"string","internalType":"string"}],"stateMutability":"view"},{"type":"function","name":"decimals","inputs":[],"outputs":[{"name":"","type":"uint8","internalType":"uint8"}],"stateMutability":"view"},{"type":"function","name":"decreaseAllowance","inputs":[{"name":"spender","type":"address","internalType":"address"},{"name":"decrement","type":"uint256","internalType":"uint256"}],"outputs":[{"name":"","type":"bool","internalType":"bool"}],"stateMutability":"nonpayable"},{"type":"function","name":"increaseAllowance","inputs":[{"name":"spender","type":"address","internalType":"address"},{"name":"increment","type":"uint256","internalType":"uint256"}],"outputs":[{"name":"","type":"bool","internalType":"bool"}],"stateMutability":"nonpayable"},{"type":"function","name":"initialize","inputs":[{"name":"tokenName","type":"string","internalType":"string"},{"name":"tokenSymbol","type":"string","internalType":"string"},{"name":"tokenCurrency","type":"string","internalType":"string"},{"name":"tokenDecimals","type":"uint8","internalType":"uint8"},{"name":"newMasterMinter","type":"address","internalType":"address"},{"name":"newPauser","type":"address","internalType":"address"},{"name":"newBlacklister","type":"address","internalType":"address"},{"name":"newOwner","type":"address","internalType":"address"}],"outputs":[],"stateMutability":"nonpayable"},{"type":"function","name":"initializeV2","inputs":[{"name":"newName","type":"string","internalType":"string"}],"outputs":[],"stateMutability":"nonpayable"},{"type":"function","name":"initializeV2_1","inputs":[{"name":"lostAndFound","type":"address","internalType":"address"}],"outputs":[],"stateMutability":"nonpayable"},{"type":"function","name":"initializeV2_2","inputs":[{"name":"accountsToBlacklist","type":"address[]","internalType":"address[]"},{"name":"newSymbol","type":"string","internalType":"string"}],"outputs":[],"stateMutability":"nonpayable"},{"type":"function","name":"isBlacklisted","inputs":[{"name":"_account","type":"address","internalType":"address"}],"outputs":[{"name":"","type":"bool","internalType":"bool"}],"stateMutability":"view"},{"type":"function","name":"isMinter","inputs":[{"name":"account","type":"address","internalType":"address"}],"outputs":[{"name":"","type":"bool","internalType":"bool"}],"stateMutability":"view"},{"type":"function","name":"masterMinter","inputs":[],"outputs":[{"name":"","type":"address","internalType":"address"}],"stateMutability":"view"},{"type":"function","name":"mint","inputs":[{"name":"_to","type":"address","internalType":"address"},{"name":"_amount","type":"uint256","internalType":"uint256"}],"outputs":[{"name":"","type":"bool","internalType":"bool"}],"stateMutability":"nonpayable"},{"type":"function","name":"minterAllowance","inputs":[{"name":"minter","type":"address","internalType":"address"}],"outputs":[{"name":"","type":"uint256","internalType":"uint256"}],"stateMutability":"view"},{"type":"function","name":"name","inputs":[],"outputs":[{"name":"","type":"string","internalType":"string"}],"stateMutability":"view"},{"type":"function","name":"nonces","inputs":[{"name":"owner","type":"address","internalType":"address"}],"outputs":[{"name":"","type":"uint256","internalType":"uint256"}],"stateMutability":"view"},{"type":"function","name":"owner","inputs":[],"outputs":[{"name":"","type":"address","internalType":"address"}],"stateMutability":"view"},{"type":"function","name":"pause","inputs":[],"outputs":[],"stateMutability":"nonpayable"},{"type":"function","name":"paused","inputs":[],"outputs":[{"name":"","type":"bool","internalType":"bool"}],"stateMutability":"view"},{"type":"function","name":"pauser","inputs":[],"outputs":[{"name":"","type":"address","internalType":"address"}],"stateMutability":"view"},{"type":"function","name":"permit","inputs":[{"name":"owner","type":"address","internalType":"address"},{"name":"spender","type":"address","internalType":"address"},{"name":"value","type":"uint256","internalType":"uint256"},{"name":"deadline","type":"uint256","internalType":"uint256"},{"name":"signature","type":"bytes","internalType":"bytes"}],"outputs":[],"stateMutability":"nonpayable"},{"type":"function","name":"permit","inputs":[{"name":"owner","type":"address","internalType":"address"},{"name":"spender","type":"address","internalType":"address"},{"name":"value","type":"uint256","internalType":"uint256"},{"name":"deadline","type":"uint256","internalType":"uint256"},{"name":"v","type":"uint8","internalType":"uint8"},{"name":"r","type":"bytes32","internalType":"bytes32"},{"name":"s","type":"bytes32","internalType":"bytes32"}],"outputs":[],"stateMutability":"nonpayable"},{"type":"function","name":"receiveWithAuthorization","inputs":[{"name":"from","type":"address","internalType":"address"},{"name":"to","type":"address","internalType":"address"},{"name":"value","type":"uint256","internalType":"uint256"},{"name":"validAfter","type":"uint256","internalType":"uint256"},{"name":"validBefore","type":"uint256","internalType":"uint256"},{"name":"nonce","type":"bytes32","internalType":"bytes32"},{"name":"signature","type":"bytes","internalType":"bytes"}],"outputs":[],"stateMutability":"nonpayable"},{"type":"function","name":"receiveWithAuthorization","inputs":[{"name":"from","type":"address","internalType":"address"},{"name":"to","type":"address","internalType":"address"},{"name":"value","type":"uint256","internalType":"uint256"},{"name":"validAfter","type":"uint256","internalType":"uint256"},{"name":"validBefore","type":"uint256","internalType":"uint256"},{"name":"nonce","type":"bytes32","internalType":"bytes32"},{"name":"v","type":"uint8","internalType":"uint8"},{"name":"r","type":"bytes32","internalType":"bytes32"},{"name":"s","type":"bytes32","internalType":"bytes32"}],"outputs":[],"stateMutability":"nonpayable"},{"type":"function","name":"removeMinter","inputs":[{"name":"minter","type":"address","internalType":"address"}],"outputs":[{"name":"","type":"bool","internalType":"bool"}],"stateMutability":"nonpayable"},{"type":"function","name":"rescueERC20","inputs":[{"name":"tokenContract","type":"address","internalType":"contract IERC20"},{"name":"to","type":"address","internalType":"address"},{"name":"amount","type":"uint256","internalType":"uint256"}],"outputs":[],"stateMutability":"nonpayable"},{"type":"function","name":"rescuer","inputs":[],"outputs":[{"name":"","type":"address","internalType":"address"}],"stateMutability":"view"},{"type":"function","name":"symbol","inputs":[],"outputs":[{"name":"","type":"string","internalType":"string"}],"stateMutability":"view"},{"type":"function","name":"totalSupply","inputs":[],"outputs":[{"name":"","type":"uint256","internalType":"uint256"}],"stateMutability":"view"},{"type":"function","name":"transfer","inputs":[{"name":"to","type":"address","internalType":"address"},{"name":"value","type":"uint256","internalType":"uint256"}],"outputs":[{"name":"","type":"bool","internalType":"bool"}],"stateMutability":"nonpayable"},{"type":"function","name":"transferFrom","inputs":[{"name":"from","type":"address","internalType":"address"},{"name":"to","type":"address","internalType":"address"},{"name":"value","type":"uint256","internalType":"uint256"}],"outputs":[{"name":"","type":"bool","internalType":"bool"}],"stateMutability":"nonpayable"},{"type":"function","name":"transferOwnership","inputs":[{"name":"newOwner","type":"address","internalType":"address"}],"outputs":[],"stateMutability":"nonpayable"},{"type":"function","name":"transferWithAuthorization","inputs":[{"name":"from","type":"address","internalType":"address"},{"name":"to","type":"address","internalType":"address"},{"name":"value","type":"uint256","internalType":"uint256"},{"name":"validAfter","type":"uint256","internalType":"uint256"},{"name":"validBefore","type":"uint256","internalType":"uint256"},{"name":"nonce","type":"bytes32","internalType":"bytes32"},{"name":"signature","type":"bytes","internalType":"bytes"}],"outputs":[],"stateMutability":"nonpayable"},{"type":"function","name":"transferWithAuthorization","inputs":[{"name":"from","type":"address","internalType":"address"},{"name":"to","type":"address","internalType":"address"},{"name":"value","type":"uint256","internalType":"uint256"},{"name":"validAfter","type":"uint256","internalType":"uint256"},{"name":"validBefore","type":"uint256","internalType":"uint256"},{"name":"nonce","type":"bytes32","internalType":"bytes32"},{"name":"v","type":"uint8","internalType":"uint8"},{"name":"r","type":"bytes32","internalType":"bytes32"},{"name":"s","type":"bytes32","internalType":"bytes32"}],"outputs":[],"stateMutability":"nonpayable"},{"type":"function","name":"unBlacklist","inputs":[{"name":"_account","type":"address","internalType":"address"}],"outputs":[],"stateMutability":"nonpayable"},{"type":"function","name":"unpause","inputs":[],"outputs":[],"stateMutability":"nonpayable"},{"type":"function","name":"updateBlacklister","inputs":[{"name":"_newBlacklister","type":"address","internalType":"address"}],"outputs":[],"stateMutability":"nonpayable"},{"type":"function","name":"updateMasterMinter","inputs":[{"name":"_newMasterMinter","type":"address","internalType":"address"}],"outputs":[],"stateMutability":"nonpayable"},{"type":"function","name":"updatePauser","inputs":[{"name":"_newPauser","type":"address","internalType":"address"}],"outputs":[],"stateMutability":"nonpayable"},{"type":"function","name":"updateRescuer","inputs":[{"name":"newRescuer","type":"address","internalType":"address"}],"outputs":[],"stateMutability":"nonpayable"},{"type":"function","name":"version","inputs":[],"outputs":[{"name":"","type":"string","internalType":"string"}],"stateMutability":"pure"},{"type":"event","name":"Approval","inputs":[{"name":"owner","type":"address","indexed":true,"internalType":"address"},{"name":"spender","type":"address","indexed":true,"internalType":"address"},{"name":"value","type":"uint256","indexed":false,"internalType":"uint256"}],"anonymous":false},{"type":"event","name":"AuthorizationCanceled","inputs":[{"name":"authorizer","type":"address","indexed":true,"internalType":"address"},{"name":"nonce","type":"bytes32","indexed":true,"internalType":"bytes32"}],"anonymous":false},{"type":"event","name":"AuthorizationUsed","inputs":[{"name":"authorizer","type":"address","indexed":true,"internalType":"address"},{"name":"nonce","type":"bytes32","indexed":true,"internalType":"bytes32"}],"anonymous":false},{"type":"event","name":"Blacklisted","inputs":[{"name":"_account","type":"address","indexed":true,"internalType":"address"}],"anonymous":false},{"type":"event","name":"BlacklisterChanged","inputs":[{"name":"newBlacklister","type":"address","indexed":true,"internalType":"address"}],"anonymous":false},{"type":"event","name":"Burn","inputs":[{"name":"burner","type":"address","indexed":true,"internalType":"address"},{"name":"amount","type":"uint256","indexed":false,"internalType":"uint256"}],"anonymous":false},{"type":"event","name":"MasterMinterChanged","inputs":[{"name":"newMasterMinter","type":"address","indexed":true,"internalType":"address"}],"anonymous":false},{"type":"event","name":"Mint","inputs":[{"name":"minter","type":"address","indexed":true,"internalType":"address"},{"name":"to","type":"address","indexed":true,"internalType":"address"},{"name":"amount","type":"uint256","indexed":false,"internalType":"uint256"}],"anonymous":false},{"type":"event","name":"MinterConfigured","inputs":[{"name":"minter","type":"address","indexed":true,"internalType":"address"},{"name":"minterAllowedAmount","type":"uint256","indexed":false,"internalType":"uint256"}],"anonymous":false},{"type":"event","name":"MinterRemoved","inputs":[{"name":"oldMinter","type":"address","indexed":true,"internalType":"address"}],"anonymous":false},{"type":"event","name":"OwnershipTransferred","inputs":[{"name":"previousOwner","type":"address","indexed":false,"internalType":"address"},{"name":"newOwner","type":"address","indexed":false,"internalType":"address"}],"anonymous":false},{"type":"event","name":"Pause","inputs":[],"anonymous":false},{"type":"event","name":"PauserChanged","inputs":[{"name":"newAddress","type":"address","indexed":true,"internalType":"address"}],"anonymous":false},{"type":"event","name":"RescuerChanged","inputs":[{"name":"newRescuer","type":"address","indexed":true,"internalType":"address"}],"anonymous":false},{"type":"event","name":"Transfer","inputs":[{"name":"from","type":"address","indexed":true,"internalType":"address"},{"name":"to","type":"address","indexed":true,"internalType":"address"},{"name":"value","type":"uint256","indexed":false,"internalType":"uint256"}],"anonymous":false},{"type":"event","name":"UnBlacklisted","inputs":[{"name":"_account","type":"address","indexed":true,"internalType":"address"}],"anonymous":false},{"type":"event","name":"Unpause","inputs":[],"anonymous":false}],"bytecode":{"object":"0x60806040526001805460ff60a01b191690556000600b553480156200002357600080fd5b506200002f3362000035565b62000057565b600080546001600160a01b0319166001600160a01b0392909216919091179055565b615ba880620000676000396000f3fe608060405234801561001057600080fd5b506004361061036d5760003560e01c80638456cb59116101d3578063b7b7289911610104578063e3ee160e116100a2578063ef55bec61161007c578063ef55bec614611122578063f2fde38b1461118e578063f9f92be4146111c1578063fe575a87146111f45761036d565b8063e3ee160e14611075578063e5a6b10f146110e1578063e94a0102146110e95761036d565b8063d505accf116100de578063d505accf14610f64578063d608ea6414610fc2578063d916948714611032578063dd62ed3e1461103a5761036d565b8063b7b7289914610db0578063bd10243014610e78578063cf09299514610e805761036d565b8063a0cc6a6811610171578063aa20e1e41161014b578063aa20e1e414610cd4578063aa271e1a14610d07578063ad38bf2214610d3a578063b2118a8d14610d6d5761036d565b8063a0cc6a6814610c5a578063a457c2d714610c62578063a9059cbb14610c9b5761036d565b80638da5cb5b116101ad5780638da5cb5b14610b6a57806395d89b4114610b725780639fd0506d14610b7a5780639fd5a6cf14610b825761036d565b80638456cb5914610a4b57806388b7ab6314610a535780638a6db9c314610b375761036d565b806338a63183116102ad57806354fd4d501161024b5780635c975abb116102255780635c975abb146109d557806370a08231146109dd5780637ecebe0014610a105780637f2eecc314610a435761036d565b806354fd4d501461094c578063554bab3c146109545780635a049a70146109875761036d565b806340c10f191161028757806340c10f19146107fb57806342966c6814610834578063430239b4146108515780634e44d956146109135761036d565b806338a63183146107b257806339509351146107ba5780633f4ba83a146107f35761036d565b80632fc81e091161031a578063313ce567116102f4578063313ce5671461056f5780633357162b1461058d57806335d99f35146107795780633644e515146107aa5761036d565b80632fc81e09146105015780633092afd51461053457806330adf81f146105675761036d565b80631a8952661161034b5780631a8952661461045657806323b872dd1461048b5780632ab60045146104ce5761036d565b806306fdde0314610372578063095ea7b3146103ef57806318160ddd1461043c575b600080fd5b61037a611227565b6040805160208082528351818301528351919283929083019185019080838360005b838110156103b457818101518382015260200161039c565b50505050905090810190601f1680156103e15780820380516001836020036101000a031916815260200191505b509250505060405180910390f35b6104286004803603604081101561040557600080fd5b5073ffffffffffffffffffffffffffffffffffffffff81351690602001356112d3565b604080519115158252519081900360200190f35b610444611374565b60408051918252519081900360200190f35b6104896004803603602081101561046c57600080fd5b503573ffffffffffffffffffffffffffffffffffffffff1661137a565b005b610428600480360360608110156104a157600080fd5b5073ffffffffffffffffffffffffffffffffffffffff813581169160208101359091169060400135611437565b610489600480360360208110156104e457600080fd5b503573ffffffffffffffffffffffffffffffffffffffff166116f2565b6104896004803603602081101561051757600080fd5b503573ffffffffffffffffffffffffffffffffffffffff16611853565b6104286004803603602081101561054a57600080fd5b503573ffffffffffffffffffffffffffffffffffffffff166118bb565b6104446119b4565b6105776119d8565b6040805160ff9092168252519081900360200190f35b61048960048036036101008110156105a457600080fd5b8101906020810181356401000000008111156105bf57600080fd5b8201836020820111156105d157600080fd5b803590602001918460018302840111640100000000831117156105f357600080fd5b91908080601f016020809104026020016040519081016040528093929190818152602001838380828437600092019190915250929594936020810193503591505064010000000081111561064657600080fd5b82018360208201111561065857600080fd5b8035906020019184600183028401116401000000008311171561067a57600080fd5b91908080601f01602080910402602001604051908101604052809392919081815260200183838082843760009201919091525092959493602081019350359150506401000000008111156106cd57600080fd5b8201836020820111156106df57600080fd5b8035906020019184600183028401116401000000008311171561070157600080fd5b91908080601f0160208091040260200160405190810160405280939291908181526020018383808284376000920191909152509295505050813560ff16925050602081013573ffffffffffffffffffffffffffffffffffffffff908116916040810135821691606082013581169160800135166119e1565b610781611d23565b6040805173ffffffffffffffffffffffffffffffffffffffff9092168252519081900360200190f35b610444611d3f565b610781611d4e565b610428600480360360408110156107d057600080fd5b5073ffffffffffffffffffffffffffffffffffffffff8135169060200135611d6a565b610489611e02565b6104286004803603604081101561081157600080fd5b5073ffffffffffffffffffffffffffffffffffffffff8135169060200135611ec5565b6104896004803603602081101561084a57600080fd5b5035612296565b6104896004803603604081101561086757600080fd5b81019060208101813564010000000081111561088257600080fd5b82018360208201111561089457600080fd5b803590602001918460208302840111640100000000831117156108b657600080fd5b9193909290916020810190356401000000008111156108d457600080fd5b8201836020820111156108e657600080fd5b8035906020019184600183028401116401000000008311171561090857600080fd5b509092509050612538565b6104286004803603604081101561092957600080fd5b5073ffffffffffffffffffffffffffffffffffffffff81351690602001356126ef565b61037a612882565b6104896004803603602081101561096a57600080fd5b503573ffffffffffffffffffffffffffffffffffffffff166128b9565b610489600480360360a081101561099d57600080fd5b5073ffffffffffffffffffffffffffffffffffffffff8135169060208101359060ff6040820135169060608101359060800135612a20565b610428612abe565b610444600480360360208110156109f357600080fd5b503573ffffffffffffffffffffffffffffffffffffffff16612adf565b61044460048036036020811015610a2657600080fd5b503573ffffffffffffffffffffffffffffffffffffffff16612af0565b610444612b18565b610489612b3c565b610489600480360360e0811015610a6957600080fd5b73ffffffffffffffffffffffffffffffffffffffff823581169260208101359091169160408201359160608101359160808201359160a08101359181019060e0810160c0820135640100000000811115610ac257600080fd5b820183602082011115610ad457600080fd5b80359060200191846001830284011164010000000083111715610af657600080fd5b91908080601f016020809104026020016040519081016040528093929190818152602001838380828437600092019190915250929550612c16945050505050565b61044460048036036020811015610b4d57600080fd5b503573ffffffffffffffffffffffffffffffffffffffff16612d7a565b610781612da2565b61037a612dbe565b610781612e37565b610489600480360360a0811015610b9857600080fd5b73ffffffffffffffffffffffffffffffffffffffff823581169260208101359091169160408201359160608101359181019060a081016080820135640100000000811115610be557600080fd5b820183602082011115610bf757600080fd5b80359060200191846001830284011164010000000083111715610c1957600080fd5b91908080601f016020809104026020016040519081016040528093929190818152602001838380828437600092019190915250929550612e53945050505050565b610444612eea565b61042860048036036040811015610c7857600080fd5b5073ffffffffffffffffffffffffffffffffffffffff8135169060200135612f0e565b61042860048036036040811015610cb157600080fd5b5073ffffffffffffffffffffffffffffffffffffffff8135169060200135612fa6565b61048960048036036020811015610cea57600080fd5b503573ffffffffffffffffffffffffffffffffffffffff16613109565b61042860048036036020811015610d1d57600080fd5b503573ffffffffffffffffffffffffffffffffffffffff16613270565b61048960048036036020811015610d5057600080fd5b503573ffffffffffffffffffffffffffffffffffffffff1661329b565b61048960048036036060811015610d8357600080fd5b5073ffffffffffffffffffffffffffffffffffffffff813581169160208101359091169060400135613402565b61048960048036036060811015610dc657600080fd5b73ffffffffffffffffffffffffffffffffffffffff82351691602081013591810190606081016040820135640100000000811115610e0357600080fd5b820183602082011115610e1557600080fd5b80359060200191846001830284011164010000000083111715610e3757600080fd5b91908080601f016020809104026020016040519081016040528093929190818152602001838380828437600092019190915250929550613498945050505050565b61078161352d565b610489600480360360e0811015610e9657600080fd5b73ffffffffffffffffffffffffffffffffffffffff823581169260208101359091169160408201359160608101359160808201359160a08101359181019060e0810160c0820135640100000000811115610eef57600080fd5b820183602082011115610f0157600080fd5b80359060200191846001830284011164010000000083111715610f2357600080fd5b91908080601f016020809104026020016040519081016040528093929190818152602001838380828437600092019190915250929550613549945050505050565b610489600480360360e0811015610f7a57600080fd5b5073ffffffffffffffffffffffffffffffffffffffff813581169160208101359091169060408101359060608101359060ff6080820135169060a08101359060c001356136a2565b61048960048036036020811015610fd857600080fd5b810190602081018135640100000000811115610ff357600080fd5b82018360208201111561100557600080fd5b8035906020019184600183028401116401000000008311171561102757600080fd5b509092509050613744565b61044461382d565b6104446004803603604081101561105057600080fd5b5073ffffffffffffffffffffffffffffffffffffffff81358116916020013516613851565b610489600480360361012081101561108c57600080fd5b5073ffffffffffffffffffffffffffffffffffffffff813581169160208101359091169060408101359060608101359060808101359060a08101359060ff60c0820135169060e0810135906101000135613889565b61037a6139f1565b610428600480360360408110156110ff57600080fd5b5073ffffffffffffffffffffffffffffffffffffffff8135169060200135613a6a565b610489600480360361012081101561113957600080fd5b5073ffffffffffffffffffffffffffffffffffffffff813581169160208101359091169060408101359060608101359060808101359060a08101359060ff60c0820135169060e0810135906101000135613aa2565b610489600480360360208110156111a457600080fd5b503573ffffffffffffffffffffffffffffffffffffffff16613bfd565b610489600480360360208110156111d757600080fd5b503573ffffffffffffffffffffffffffffffffffffffff16613d50565b6104286004803603602081101561120a57600080fd5b503573ffffffffffffffffffffffffffffffffffffffff16613e0d565b6004805460408051602060026001851615610100027fffffffffffffffffffffffffffffffffffffffffffffffffffffffffffffffff0190941693909304601f810184900484028201840190925281815292918301828280156112cb5780601f106112a0576101008083540402835291602001916112cb565b820191906000526020600020905b8154815290600101906020018083116112ae57829003601f168201915b505050505081565b60015460009074010000000000000000000000000000000000000000900460ff161561136057604080517f08c379a000000000000000000000000000000000000000000000000000000000815260206004820152601060248201527f5061757361626c653a2070617573656400000000000000000000000000000000604482015290519081900360640190fd5b61136b338484613e18565b50600192915050565b600b5490565b60025473ffffffffffffffffffffffffffffffffffffffff1633146113ea576040517f08c379a000000000000000000000000000000000000000000000000000000000815260040180806020018281038252602c815260200180615824602c913960400191505060405180910390fd5b6113f381613f5f565b60405173ffffffffffffffffffffffffffffffffffffffff8216907f117e3210bb9aa7d9baff172026820255c6f6c30ba8999d1c2fd88e2848137c4e90600090a250565b60015460009074010000000000000000000000000000000000000000900460ff16156114c457604080517f08c379a000000000000000000000000000000000000000000000000000000000815260206004820152601060248201527f5061757361626c653a2070617573656400000000000000000000000000000000604482015290519081900360640190fd5b336114ce81613f6a565b15611524576040517f08c379a0000000000000000000000000000000000000000000000000000000008152600401808060200182810382526025815260200180615b046025913960400191505060405180910390fd5b8461152e81613f6a565b15611584576040517f08c379a0000000000000000000000000000000000000000000000000000000008152600401808060200182810382526025815260200180615b046025913960400191505060405180910390fd5b8461158e81613f6a565b156115e4576040517f08c379a0000000000000000000000000000000000000000000000000000000008152600401808060200182810382526025815260200180615b046025913960400191505060405180910390fd5b73ffffffffffffffffffffffffffffffffffffffff87166000908152600a6020908152604080832033845290915290205485111561166d576040517f08c379a00000000000000000000000000000000000000000000000000000000081526004018080602001828103825260288152602001806159146028913960400191505060405180910390fd5b611678878787613f98565b73ffffffffffffffffffffffffffffffffffffffff87166000908152600a602090815260408083203384529091529020546116b39086614163565b73ffffffffffffffffffffffffffffffffffffffff88166000908152600a60209081526040808320338452909152902055600193505050509392505050565b60005473ffffffffffffffffffffffffffffffffffffffff16331461177857604080517f08c379a000000000000000000000000000000000000000000000000000000000815260206004820181905260248201527f4f776e61626c653a2063616c6c6572206973206e6f7420746865206f776e6572604482015290519081900360640190fd5b73ffffffffffffffffffffffffffffffffffffffff81166117e4576040517f08c379a000000000000000000000000000000000000000000000000000000000815260040180806020018281038252602a81526020018061575d602a913960400191505060405180910390fd5b600e80547fffffffffffffffffffffffff00000000000000000000000000000000000000001673ffffffffffffffffffffffffffffffffffffffff83169081179091556040517fe475e580d85111348e40d8ca33cfdd74c30fe1655c2d8537a13abc10065ffa5a90600090a250565b60125460ff1660011461186557600080fd5b6000611870306141da565b9050801561188357611883308383613f98565b61188c30614224565b5050601280547fffffffffffffffffffffffffffffffffffffffffffffffffffffffffffffff00166002179055565b60085460009073ffffffffffffffffffffffffffffffffffffffff16331461192e576040517f08c379a00000000000000000000000000000000000000000000000000000000081526004018080602001828103825260298152602001806157fb6029913960400191505060405180910390fd5b73ffffffffffffffffffffffffffffffffffffffff82166000818152600c6020908152604080832080547fffffffffffffffffffffffffffffffffffffffffffffffffffffffffffffff00169055600d909152808220829055517fe94479a9f7e1952cc78f2d6baab678adc1b772d936c6583def489e524cb666929190a2506001919050565b7f6e71edae12b1b97f4d1f60370fef10105fa2faae0126114a169c64845d6126c981565b60065460ff1681565b60085474010000000000000000000000000000000000000000900460ff1615611a55576040517f08c379a000000000000000000000000000000000000000000000000000000000815260040180806020018281038252602a81526020018061598f602a913960400191505060405180910390fd5b73ffffffffffffffffffffffffffffffffffffffff8416611ac1576040517f08c379a000000000000000000000000000000000000000000000000000000000815260040180806020018281038252602f8152602001806158c1602f913960400191505060405180910390fd5b73ffffffffffffffffffffffffffffffffffffffff8316611b2d576040517f08c379a00000000000000000000000000000000000000000000000000000000081526004018080602001828103825260298152602001806157346029913960400191505060405180910390fd5b73ffffffffffffffffffffffffffffffffffffffff8216611b99576040517f08c379a000000000000000000000000000000000000000000000000000000000815260040180806020018281038252602e81526020018061593c602e913960400191505060405180910390fd5b73ffffffffffffffffffffffffffffffffffffffff8116611c05576040517f08c379a0000000000000000000000000000000000000000000000000000000008152600401808060200182810382526028815260200180615a7c6028913960400191505060405180910390fd5b8751611c189060049060208b01906154cd565b508651611c2c9060059060208a01906154cd565b508551611c409060079060208901906154cd565b50600680547fffffffffffffffffffffffffffffffffffffffffffffffffffffffffffffff001660ff8716179055600880547fffffffffffffffffffffffff000000000000000000000000000000000000000090811673ffffffffffffffffffffffffffffffffffffffff8781169190911790925560018054821686841617905560028054909116918416919091179055611cda8161422f565b5050600880547fffffffffffffffffffffff00ffffffffffffffffffffffffffffffffffffffff1674010000000000000000000000000000000000000000179055505050505050565b60085473ffffffffffffffffffffffffffffffffffffffff1681565b6000611d49614276565b905090565b600e5473ffffffffffffffffffffffffffffffffffffffff1690565b60015460009074010000000000000000000000000000000000000000900460ff1615611df757604080517f08c379a000000000000000000000000000000000000000000000000000000000815260206004820152601060248201527f5061757361626c653a2070617573656400000000000000000000000000000000604482015290519081900360640190fd5b61136b33848461436b565b60015473ffffffffffffffffffffffffffffffffffffffff163314611e72576040517f08c379a0000000000000000000000000000000000000000000000000000000008152600401808060200182810382526022815260200180615a306022913960400191505060405180910390fd5b600180547fffffffffffffffffffffff00ffffffffffffffffffffffffffffffffffffffff1690556040517f7805862f689e2f13df9f062ff482ad3ad112aca9e0847911ed832e158c525b3390600090a1565b60015460009074010000000000000000000000000000000000000000900460ff1615611f5257604080517f08c379a000000000000000000000000000000000000000000000000000000000815260206004820152601060248201527f5061757361626c653a2070617573656400000000000000000000000000000000604482015290519081900360640190fd5b336000908152600c602052604090205460ff16611fba576040517f08c379a00000000000000000000000000000000000000000000000000000000081526004018080602001828103825260218152602001806158a06021913960400191505060405180910390fd5b33611fc481613f6a565b1561201a576040517f08c379a0000000000000000000000000000000000000000000000000000000008152600401808060200182810382526025815260200180615b046025913960400191505060405180910390fd5b8361202481613f6a565b1561207a576040517f08c379a0000000000000000000000000000000000000000000000000000000008152600401808060200182810382526025815260200180615b046025913960400191505060405180910390fd5b73ffffffffffffffffffffffffffffffffffffffff85166120e6576040517f08c379a00000000000000000000000000000000000000000000000000000000081526004018080602001828103825260238152602001806156c96023913960400191505060405180910390fd5b6000841161213f576040517f08c379a00000000000000000000000000000000000000000000000000000000081526004018080602001828103825260298152602001806157ac6029913960400191505060405180910390fd5b336000908152600d6020526040902054808511156121a8576040517f08c379a000000000000000000000000000000000000000000000000000000000815260040180806020018281038252602e815260200180615a02602e913960400191505060405180910390fd5b600b546121b590866143b5565b600b556121d4866121cf876121c9836141da565b906143b5565b614430565b6121de8186614163565b336000818152600d6020908152604091829020939093558051888152905173ffffffffffffffffffffffffffffffffffffffff8a16937fab8530f87dc9b59234c4623bf917212bb2536d647574c8e7e5da92c2ede0c9f8928290030190a360408051868152905173ffffffffffffffffffffffffffffffffffffffff8816916000917fddf252ad1be2c89b69c2b068fc378daa952ba7f163c4a11628f55a4df523b3ef9181900360200190a350600195945050505050565b60015474010000000000000000000000000000000000000000900460ff161561232057604080517f08c379a000000000000000000000000000000000000000000000000000000000815260206004820152601060248201527f5061757361626c653a2070617573656400000000000000000000000000000000604482015290519081900360640190fd5b336000908152600c602052604090205460ff16612388576040517f08c379a00000000000000000000000000000000000000000000000000000000081526004018080602001828103825260218152602001806158a06021913960400191505060405180910390fd5b3361239281613f6a565b156123e8576040517f08c379a0000000000000000000000000000000000000000000000000000000008152600401808060200182810382526025815260200180615b046025913960400191505060405180910390fd5b60006123f3336141da565b90506000831161244e576040517f08c379a00000000000000000000000000000000000000000000000000000000081526004018080602001828103825260298152602001806156a06029913960400191505060405180910390fd5b828110156124a7576040517f08c379a000000000000000000000000000000000000000000000000000000000815260040180806020018281038252602681526020018061587a6026913960400191505060405180910390fd5b600b546124b49084614163565b600b556124c5336121cf8386614163565b60408051848152905133917fcc16f5dbb4873280815c1ee09dbd06736cffcc184412cf7a71a0fdb75d397ca5919081900360200190a260408051848152905160009133917fddf252ad1be2c89b69c2b068fc378daa952ba7f163c4a11628f55a4df523b3ef9181900360200190a3505050565b60125460ff1660021461254a57600080fd5b6125566005838361554b565b5060005b83811015612698576003600086868481811061257257fe5b6020908102929092013573ffffffffffffffffffffffffffffffffffffffff168352508101919091526040016000205460ff166125fa576040517f08c379a000000000000000000000000000000000000000000000000000000000815260040180806020018281038252603d8152602001806155ed603d913960400191505060405180910390fd5b61262b85858381811061260957fe5b9050602002013573ffffffffffffffffffffffffffffffffffffffff16614224565b6003600086868481811061263b57fe5b6020908102929092013573ffffffffffffffffffffffffffffffffffffffff1683525081019190915260400160002080547fffffffffffffffffffffffffffffffffffffffffffffffffffffffffffffff0016905560010161255a565b506126a230614224565b505030600090815260036020819052604090912080547fffffffffffffffffffffffffffffffffffffffffffffffffffffffffffffff009081169091556012805490911690911790555050565b60015460009074010000000000000000000000000000000000000000900460ff161561277c57604080517f08c379a000000000000000000000000000000000000000000000000000000000815260206004820152601060248201527f5061757361626c653a2070617573656400000000000000000000000000000000604482015290519081900360640190fd5b60085473ffffffffffffffffffffffffffffffffffffffff1633146127ec576040517f08c379a00000000000000000000000000000000000000000000000000000000081526004018080602001828103825260298152602001806157fb6029913960400191505060405180910390fd5b73ffffffffffffffffffffffffffffffffffffffff83166000818152600c6020908152604080832080547fffffffffffffffffffffffffffffffffffffffffffffffffffffffffffffff00166001179055600d825291829020859055815185815291517f46980fca912ef9bcdbd36877427b6b90e860769f604e89c0e67720cece530d209281900390910190a250600192915050565b60408051808201909152600181527f3200000000000000000000000000000000000000000000000000000000000000602082015290565b60005473ffffffffffffffffffffffffffffffffffffffff16331461293f57604080517f08c379a000000000000000000000000000000000000000000000000000000000815260206004820181905260248201527f4f776e61626c653a2063616c6c6572206973206e6f7420746865206f776e6572604482015290519081900360640190fd5b73ffffffffffffffffffffffffffffffffffffffff81166129ab576040517f08c379a000000000000000000000000000000000000000000000000000000000815260040180806020018281038252602881526020018061564d6028913960400191505060405180910390fd5b600180547fffffffffffffffffffffffff00000000000000000000000000000000000000001673ffffffffffffffffffffffffffffffffffffffff83811691909117918290556040519116907fb80482a293ca2e013eda8683c9bd7fc8347cfdaeea5ede58cba46df502c2a60490600090a250565b60015474010000000000000000000000000000000000000000900460ff1615612aaa57604080517f08c379a000000000000000000000000000000000000000000000000000000000815260206004820152601060248201527f5061757361626c653a2070617573656400000000000000000000000000000000604482015290519081900360640190fd5b612ab78585858585614531565b5050505050565b60015474010000000000000000000000000000000000000000900460ff1681565b6000612aea826141da565b92915050565b73ffffffffffffffffffffffffffffffffffffffff1660009081526011602052604090205490565b7fd099cc98ef71107a616c4f0f941f04c322d8e254fe26b3c6668db87aae413de881565b60015473ffffffffffffffffffffffffffffffffffffffff163314612bac576040517f08c379a0000000000000000000000000000000000000000000000000000000008152600401808060200182810382526022815260200180615a306022913960400191505060405180910390fd5b600180547fffffffffffffffffffffff00ffffffffffffffffffffffffffffffffffffffff16740100000000000000000000000000000000000000001790556040517f6985a02210a168e66602d3235cb6db0e70f92b3ba4d376a33c0f3d9434bff62590600090a1565b60015474010000000000000000000000000000000000000000900460ff1615612ca057604080517f08c379a000000000000000000000000000000000000000000000000000000000815260206004820152601060248201527f5061757361626c653a2070617573656400000000000000000000000000000000604482015290519081900360640190fd5b86612caa81613f6a565b15612d00576040517f08c379a0000000000000000000000000000000000000000000000000000000008152600401808060200182810382526025815260200180615b046025913960400191505060405180910390fd5b86612d0a81613f6a565b15612d60576040517f08c379a0000000000000000000000000000000000000000000000000000000008152600401808060200182810382526025815260200180615b046025913960400191505060405180910390fd5b612d6f89898989898989614571565b505050505050505050565b73ffffffffffffffffffffffffffffffffffffffff166000908152600d602052604090205490565b60005473ffffffffffffffffffffffffffffffffffffffff1690565b6005805460408051602060026001851615610100027fffffffffffffffffffffffffffffffffffffffffffffffffffffffffffffffff0190941693909304601f810184900484028201840190925281815292918301828280156112cb5780601f106112a0576101008083540402835291602001916112cb565b60015473ffffffffffffffffffffffffffffffffffffffff1681565b60015474010000000000000000000000000000000000000000900460ff1615612edd57604080517f08c379a000000000000000000000000000000000000000000000000000000000815260206004820152601060248201527f5061757361626c653a2070617573656400000000000000000000000000000000604482015290519081900360640190fd5b612ab78585858585614692565b7f7c7c6cdb67a18743f49ec6fa9b35f50d52ed05cbed4cc592e13b44501c1a226781565b60015460009074010000000000000000000000000000000000000000900460ff1615612f9b57604080517f08c379a000000000000000000000000000000000000000000000000000000000815260206004820152601060248201527f5061757361626c653a2070617573656400000000000000000000000000000000604482015290519081900360640190fd5b61136b338484614956565b60015460009074010000000000000000000000000000000000000000900460ff161561303357604080517f08c379a000000000000000000000000000000000000000000000000000000000815260206004820152601060248201527f5061757361626c653a2070617573656400000000000000000000000000000000604482015290519081900360640190fd5b3361303d81613f6a565b15613093576040517f08c379a0000000000000000000000000000000000000000000000000000000008152600401808060200182810382526025815260200180615b046025913960400191505060405180910390fd5b8361309d81613f6a565b156130f3576040517f08c379a0000000000000000000000000000000000000000000000000000000008152600401808060200182810382526025815260200180615b046025913960400191505060405180910390fd5b6130fe338686613f98565b506001949350505050565b60005473ffffffffffffffffffffffffffffffffffffffff16331461318f57604080517f08c379a000000000000000000000000000000000000000000000000000000000815260206004820181905260248201527f4f776e61626c653a2063616c6c6572206973206e6f7420746865206f776e6572604482015290519081900360640190fd5b73ffffffffffffffffffffffffffffffffffffffff81166131fb576040517f08c379a000000000000000000000000000000000000000000000000000000000815260040180806020018281038252602f8152602001806158c1602f913960400191505060405180910390fd5b600880547fffffffffffffffffffffffff00000000000000000000000000000000000000001673ffffffffffffffffffffffffffffffffffffffff83811691909117918290556040519116907fdb66dfa9c6b8f5226fe9aac7e51897ae8ee94ac31dc70bb6c9900b2574b707e690600090a250565b73ffffffffffffffffffffffffffffffffffffffff166000908152600c602052604090205460ff1690565b60005473ffffffffffffffffffffffffffffffffffffffff16331461332157604080517f08c379a000000000000000000000000000000000000000000000000000000000815260206004820181905260248201527f4f776e61626c653a2063616c6c6572206973206e6f7420746865206f776e6572604482015290519081900360640190fd5b73ffffffffffffffffffffffffffffffffffffffff811661338d576040517f08c379a0000000000000000000000000000000000000000000000000000000008152600401808060200182810382526032815260200180615ad26032913960400191505060405180910390fd5b600280547fffffffffffffffffffffffff00000000000000000000000000000000000000001673ffffffffffffffffffffffffffffffffffffffff83811691909117918290556040519116907fc67398012c111ce95ecb7429b933096c977380ee6c421175a71a4a4c6c88c06e90600090a250565b600e5473ffffffffffffffffffffffffffffffffffffffff163314613472576040517f08c379a00000000000000000000000000000000000000000000000000000000081526004018080602001828103825260248152602001806158f06024913960400191505060405180910390fd5b61349373ffffffffffffffffffffffffffffffffffffffff841683836149b2565b505050565b60015474010000000000000000000000000000000000000000900460ff161561352257604080517f08c379a000000000000000000000000000000000000000000000000000000000815260206004820152601060248201527f5061757361626c653a2070617573656400000000000000000000000000000000604482015290519081900360640190fd5b613493838383614a3f565b60025473ffffffffffffffffffffffffffffffffffffffff1681565b60015474010000000000000000000000000000000000000000900460ff16156135d357604080517f08c379a000000000000000000000000000000000000000000000000000000000815260206004820152601060248201527f5061757361626c653a2070617573656400000000000000000000000000000000604482015290519081900360640190fd5b866135dd81613f6a565b15613633576040517f08c379a0000000000000000000000000000000000000000000000000000000008152600401808060200182810382526025815260200180615b046025913960400191505060405180910390fd5b8661363d81613f6a565b15613693576040517f08c379a0000000000000000000000000000000000000000000000000000000008152600401808060200182810382526025815260200180615b046025913960400191505060405180910390fd5b612d6f89898989898989614b49565b60015474010000000000000000000000000000000000000000900460ff161561372c57604080517f08c379a000000000000000000000000000000000000000000000000000000000815260206004820152601060248201527f5061757361626c653a2070617573656400000000000000000000000000000000604482015290519081900360640190fd5b61373b87878787878787614be7565b50505050505050565b60085474010000000000000000000000000000000000000000900460ff168015613771575060125460ff16155b61377a57600080fd5b6137866004838361554b565b506137fb82828080601f0160208091040260200160405190810160405280939291908181526020018383808284376000920191909152505060408051808201909152600181527f320000000000000000000000000000000000000000000000000000000000000060208201529150614c299050565b600f555050601280547fffffffffffffffffffffffffffffffffffffffffffffffffffffffffffffff00166001179055565b7f158b0a9edf7a828aad02f63cd515c68ef2f50ba807396f6d12842833a159742981565b73ffffffffffffffffffffffffffffffffffffffff9182166000908152600a6020908152604080832093909416825291909152205490565b60015474010000000000000000000000000000000000000000900460ff161561391357604080517f08c379a000000000000000000000000000000000000000000000000000000000815260206004820152601060248201527f5061757361626c653a2070617573656400000000000000000000000000000000604482015290519081900360640190fd5b8861391d81613f6a565b15613973576040517f08c379a0000000000000000000000000000000000000000000000000000000008152600401808060200182810382526025815260200180615b046025913960400191505060405180910390fd5b8861397d81613f6a565b156139d3576040517f08c379a0000000000000000000000000000000000000000000000000000000008152600401808060200182810382526025815260200180615b046025913960400191505060405180910390fd5b6139e48b8b8b8b8b8b8b8b8b614c3f565b5050505050505050505050565b6007805460408051602060026001851615610100027fffffffffffffffffffffffffffffffffffffffffffffffffffffffffffffffff0190941693909304601f810184900484028201840190925281815292918301828280156112cb5780601f106112a0576101008083540402835291602001916112cb565b73ffffffffffffffffffffffffffffffffffffffff919091166000908152601060209081526040808320938352929052205460ff1690565b60015474010000000000000000000000000000000000000000900460ff1615613b2c57604080517f08c379a000000000000000000000000000000000000000000000000000000000815260206004820152601060248201527f5061757361626c653a2070617573656400000000000000000000000000000000604482015290519081900360640190fd5b88613b3681613f6a565b15613b8c576040517f08c379a0000000000000000000000000000000000000000000000000000000008152600401808060200182810382526025815260200180615b046025913960400191505060405180910390fd5b88613b9681613f6a565b15613bec576040517f08c379a0000000000000000000000000000000000000000000000000000000008152600401808060200182810382526025815260200180615b046025913960400191505060405180910390fd5b6139e48b8b8b8b8b8b8b8b8b614c83565b60005473ffffffffffffffffffffffffffffffffffffffff163314613c8357604080517f08c379a000000000000000000000000000000000000000000000000000000000815260206004820181905260248201527f4f776e61626c653a2063616c6c6572206973206e6f7420746865206f776e6572604482015290519081900360640190fd5b73ffffffffffffffffffffffffffffffffffffffff8116613cef576040517f08c379a00000000000000000000000000000000000000000000000000000000081526004018080602001828103825260268152602001806156ec6026913960400191505060405180910390fd5b6000546040805173ffffffffffffffffffffffffffffffffffffffff9283168152918316602083015280517f8be0079c531659141344cd1fd0a4f28419497f9722a3daafe3b4186f6b6457e09281900390910190a1613d4d8161422f565b50565b60025473ffffffffffffffffffffffffffffffffffffffff163314613dc0576040517f08c379a000000000000000000000000000000000000000000000000000000000815260040180806020018281038252602c815260200180615824602c913960400191505060405180910390fd5b613dc981614224565b60405173ffffffffffffffffffffffffffffffffffffffff8216907fffa4e6181777692565cf28528fc88fd1516ea86b56da075235fa575af6a4b85590600090a250565b6000612aea82613f6a565b73ffffffffffffffffffffffffffffffffffffffff8316613e84576040517f08c379a00000000000000000000000000000000000000000000000000000000081526004018080602001828103825260248152602001806159de6024913960400191505060405180910390fd5b73ffffffffffffffffffffffffffffffffffffffff8216613ef0576040517f08c379a00000000000000000000000000000000000000000000000000000000081526004018080602001828103825260228152602001806157126022913960400191505060405180910390fd5b73ffffffffffffffffffffffffffffffffffffffff8084166000818152600a6020908152604080832094871680845294825291829020859055815185815291517f8c5be1e5ebec7d5bd14f71427d1e84f3dd0314c0f7b2291e5b200ac8c7c3b9259281900390910190a3505050565b613d4d816000614cc7565b73ffffffffffffffffffffffffffffffffffffffff1660009081526009602052604090205460ff1c60011490565b73ffffffffffffffffffffffffffffffffffffffff8316614004576040517f08c379a00000000000000000000000000000000000000000000000000000000081526004018080602001828103825260258152602001806159b96025913960400191505060405180910390fd5b73ffffffffffffffffffffffffffffffffffffffff8216614070576040517f08c379a000000000000000000000000000000000000000000000000000000000815260040180806020018281038252602381526020018061562a6023913960400191505060405180910390fd5b614079836141da565b8111156140d1576040517f08c379a00000000000000000000000000000000000000000000000000000000081526004018080602001828103825260268152602001806157d56026913960400191505060405180910390fd5b6140e8836121cf836140e2876141da565b90614163565b6140f9826121cf836121c9866141da565b8173ffffffffffffffffffffffffffffffffffffffff168373ffffffffffffffffffffffffffffffffffffffff167fddf252ad1be2c89b69c2b068fc378daa952ba7f163c4a11628f55a4df523b3ef836040518082815260200191505060405180910390a3505050565b6000828211156141d457604080517f08c379a000000000000000000000000000000000000000000000000000000000815260206004820152601e60248201527f536166654d6174683a207375627472616374696f6e206f766572666c6f770000604482015290519081900360640190fd5b50900390565b73ffffffffffffffffffffffffffffffffffffffff166000908152600960205260409020547f7fffffffffffffffffffffffffffffffffffffffffffffffffffffffffffffff1690565b613d4d816001614cc7565b600080547fffffffffffffffffffffffff00000000000000000000000000000000000000001673ffffffffffffffffffffffffffffffffffffffff92909216919091179055565b6004805460408051602060026001851615610100027fffffffffffffffffffffffffffffffffffffffffffffffffffffffffffffffff0190941693909304601f8101849004840282018401909252818152600093611d4993919290918301828280156143235780601f106142f857610100808354040283529160200191614323565b820191906000526020600020905b81548152906001019060200180831161430657829003601f168201915b50505050506040518060400160405280600181526020017f3200000000000000000000000000000000000000000000000000000000000000815250614366614d50565b614d54565b73ffffffffffffffffffffffffffffffffffffffff8084166000908152600a602090815260408083209386168352929052205461349390849084906143b090856143b5565b613e18565b60008282018381101561442957604080517f08c379a000000000000000000000000000000000000000000000000000000000815260206004820152601b60248201527f536166654d6174683a206164646974696f6e206f766572666c6f770000000000604482015290519081900360640190fd5b9392505050565b7f7fffffffffffffffffffffffffffffffffffffffffffffffffffffffffffffff8111156144a9576040517f08c379a000000000000000000000000000000000000000000000000000000000815260040180806020018281038252602a815260200180615850602a913960400191505060405180910390fd5b6144b282613f6a565b15614508576040517f08c379a00000000000000000000000000000000000000000000000000000000081526004018080602001828103825260258152602001806157876025913960400191505060405180910390fd5b73ffffffffffffffffffffffffffffffffffffffff909116600090815260096020526040902055565b612ab78585848487604051602001808481526020018381526020018260ff1660f81b81526001019350505050604051602081830303815290604052614a3f565b73ffffffffffffffffffffffffffffffffffffffff861633146145df576040517f08c379a000000000000000000000000000000000000000000000000000000000815260040180806020018281038252602581526020018061596a6025913960400191505060405180910390fd5b6145eb87838686614dc8565b604080517fd099cc98ef71107a616c4f0f941f04c322d8e254fe26b3c6668db87aae413de860208083019190915273ffffffffffffffffffffffffffffffffffffffff808b1683850152891660608301526080820188905260a0820187905260c0820186905260e080830186905283518084039091018152610100909201909252805191012061467d90889083614e88565b6146878783615006565b61373b878787613f98565b7fffffffffffffffffffffffffffffffffffffffffffffffffffffffffffffffff8214806146c05750428210155b61472b57604080517f08c379a000000000000000000000000000000000000000000000000000000000815260206004820152601e60248201527f46696174546f6b656e56323a207065726d697420697320657870697265640000604482015290519081900360640190fd5b60006147d3614738614276565b73ffffffffffffffffffffffffffffffffffffffff80891660008181526011602090815260409182902080546001810190915582517f6e71edae12b1b97f4d1f60370fef10105fa2faae0126114a169c64845d6126c98184015280840194909452938b166060840152608083018a905260a083019390935260c08083018990528151808403909101815260e09092019052805191012061508b565b905073__$715109b5d747ea58b675c6ea3f0dba8c60$__636ccea6528783856040518463ffffffff1660e01b8152600401808473ffffffffffffffffffffffffffffffffffffffff16815260200183815260200180602001828103825283818151815260200191508051906020019080838360005b83811015614860578181015183820152602001614848565b50505050905090810190601f16801561488d5780820380516001836020036101000a031916815260200191505b5094505050505060206040518083038186803b1580156148ac57600080fd5b505af41580156148c0573d6000803e3d6000fd5b505050506040513d60208110156148d657600080fd5b505161494357604080517f08c379a000000000000000000000000000000000000000000000000000000000815260206004820152601a60248201527f454950323631323a20696e76616c6964207369676e6174757265000000000000604482015290519081900360640190fd5b61494e868686613e18565b505050505050565b61349383836143b084604051806060016040528060258152602001615b4e6025913973ffffffffffffffffffffffffffffffffffffffff808a166000908152600a60209081526040808320938c168352929052205491906150c5565b6040805173ffffffffffffffffffffffffffffffffffffffff8416602482015260448082018490528251808303909101815260649091019091526020810180517bffffffffffffffffffffffffffffffffffffffffffffffffffffffff167fa9059cbb00000000000000000000000000000000000000000000000000000000179052613493908490615176565b614a49838361524e565b614ac3837f158b0a9edf7a828aad02f63cd515c68ef2f50ba807396f6d12842833a159742960001b8585604051602001808481526020018373ffffffffffffffffffffffffffffffffffffffff16815260200182815260200193505050506040516020818303038152906040528051906020012083614e88565b73ffffffffffffffffffffffffffffffffffffffff8316600081815260106020908152604080832086845290915280822080547fffffffffffffffffffffffffffffffffffffffffffffffffffffffffffffff00166001179055518492917f1cdd46ff242716cdaa72d159d339a485b3438398348d68f09d7c8c0a59353d8191a3505050565b614b5587838686614dc8565b604080517f7c7c6cdb67a18743f49ec6fa9b35f50d52ed05cbed4cc592e13b44501c1a226760208083019190915273ffffffffffffffffffffffffffffffffffffffff808b1683850152891660608301526080820188905260a0820187905260c0820186905260e080830186905283518084039091018152610100909201909252805191012061467d90889083614e88565b61373b87878787868689604051602001808481526020018381526020018260ff1660f81b81526001019350505050604051602081830303815290604052614692565b600046614c37848483614d54565b949350505050565b612d6f89898989898988888b604051602001808481526020018381526020018260ff1660f81b81526001019350505050604051602081830303815290604052614b49565b612d6f89898989898988888b604051602001808481526020018381526020018260ff1660f81b81526001019350505050604051602081830303815290604052614571565b80614cda57614cd5826141da565b614d23565b73ffffffffffffffffffffffffffffffffffffffff82166000908152600960205260409020547f8000000000000000000000000000000000000000000000000000000000000000175b73ffffffffffffffffffffffffffffffffffffffff90921660009081526009602052604090209190915550565b4690565b8251602093840120825192840192909220604080517f8b73c3c69bb8fe3d512ecc4cf759cc79239f7b179b0ffacaa9a75d522b39400f8187015280820194909452606084019190915260808301919091523060a0808401919091528151808403909101815260c09092019052805191012090565b814211614e20576040517f08c379a000000000000000000000000000000000000000000000000000000000815260040180806020018281038252602b815260200180615675602b913960400191505060405180910390fd5b804210614e78576040517f08c379a0000000000000000000000000000000000000000000000000000000008152600401808060200182810382526025815260200180615b296025913960400191505060405180910390fd5b614e82848461524e565b50505050565b73__$715109b5d747ea58b675c6ea3f0dba8c60$__636ccea65284614eb4614eae614276565b8661508b565b846040518463ffffffff1660e01b8152600401808473ffffffffffffffffffffffffffffffffffffffff16815260200183815260200180602001828103825283818151815260200191508051906020019080838360005b83811015614f23578181015183820152602001614f0b565b50505050905090810190601f168015614f505780820380516001836020036101000a031916815260200191505b5094505050505060206040518083038186803b158015614f6f57600080fd5b505af4158015614f83573d6000803e3d6000fd5b505050506040513d6020811015614f9957600080fd5b505161349357604080517f08c379a000000000000000000000000000000000000000000000000000000000815260206004820152601e60248201527f46696174546f6b656e56323a20696e76616c6964207369676e61747572650000604482015290519081900360640190fd5b73ffffffffffffffffffffffffffffffffffffffff8216600081815260106020908152604080832085845290915280822080547fffffffffffffffffffffffffffffffffffffffffffffffffffffffffffffff00166001179055518392917f98de503528ee59b575ef0c0a2576a82497bfc029a5685b209e9ec333479b10a591a35050565b6040517f19010000000000000000000000000000000000000000000000000000000000008152600281019290925260228201526042902090565b6000818484111561516e576040517f08c379a00000000000000000000000000000000000000000000000000000000081526004018080602001828103825283818151815260200191508051906020019080838360005b8381101561513357818101518382015260200161511b565b50505050905090810190601f1680156151605780820380516001836020036101000a031916815260200191505b509250505060405180910390fd5b505050900390565b60606151d8826040518060400160405280602081526020017f5361666545524332303a206c6f772d6c6576656c2063616c6c206661696c65648152508573ffffffffffffffffffffffffffffffffffffffff166152dc9092919063ffffffff16565b805190915015613493578080602001905160208110156151f757600080fd5b5051613493576040517f08c379a000000000000000000000000000000000000000000000000000000000815260040180806020018281038252602a815260200180615a52602a913960400191505060405180910390fd5b73ffffffffffffffffffffffffffffffffffffffff8216600090815260106020908152604080832084845290915290205460ff16156152d8576040517f08c379a000000000000000000000000000000000000000000000000000000000815260040180806020018281038252602e815260200180615aa4602e913960400191505060405180910390fd5b5050565b6060614c378484600085856152f085615447565b61535b57604080517f08c379a000000000000000000000000000000000000000000000000000000000815260206004820152601d60248201527f416464726573733a2063616c6c20746f206e6f6e2d636f6e7472616374000000604482015290519081900360640190fd5b600060608673ffffffffffffffffffffffffffffffffffffffff1685876040518082805190602001908083835b602083106153c557805182527fffffffffffffffffffffffffffffffffffffffffffffffffffffffffffffffe09092019160209182019101615388565b6001836020036101000a03801982511681845116808217855250505050505090500191505060006040518083038185875af1925050503d8060008114615427576040519150601f19603f3d011682016040523d82523d6000602084013e61542c565b606091505b509150915061543c82828661544d565b979650505050505050565b3b151590565b6060831561545c575081614429565b82511561546c5782518084602001fd5b6040517f08c379a000000000000000000000000000000000000000000000000000000000815260206004820181815284516024840152845185939192839260440191908501908083836000831561513357818101518382015260200161511b565b828054600181600116156101000203166002900490600052602060002090601f016020900481019282601f1061550e57805160ff191683800117855561553b565b8280016001018555821561553b579182015b8281111561553b578251825591602001919060010190615520565b506155479291506155d7565b5090565b828054600181600116156101000203166002900490600052602060002090601f016020900481019282601f106155aa578280017fffffffffffffffffffffffffffffffffffffffffffffffffffffffffffffff0082351617855561553b565b8280016001018555821561553b579182015b8281111561553b5782358255916020019190600101906155bc565b5b8082111561554757600081556001016155d856fe46696174546f6b656e56325f323a20426c61636b6c697374696e672070726576696f75736c7920756e626c61636b6c6973746564206163636f756e742145524332303a207472616e7366657220746f20746865207a65726f20616464726573735061757361626c653a206e65772070617573657220697320746865207a65726f206164647265737346696174546f6b656e56323a20617574686f72697a6174696f6e206973206e6f74207965742076616c696446696174546f6b656e3a206275726e20616d6f756e74206e6f742067726561746572207468616e203046696174546f6b656e3a206d696e7420746f20746865207a65726f20616464726573734f776e61626c653a206e6577206f776e657220697320746865207a65726f206164647265737345524332303a20617070726f766520746f20746865207a65726f206164647265737346696174546f6b656e3a206e65772070617573657220697320746865207a65726f2061646472657373526573637561626c653a206e6577207265736375657220697320746865207a65726f206164647265737346696174546f6b656e56325f323a204163636f756e7420697320626c61636b6c697374656446696174546f6b656e3a206d696e7420616d6f756e74206e6f742067726561746572207468616e203045524332303a207472616e7366657220616d6f756e7420657863656564732062616c616e636546696174546f6b656e3a2063616c6c6572206973206e6f7420746865206d61737465724d696e746572426c61636b6c69737461626c653a2063616c6c6572206973206e6f742074686520626c61636b6c697374657246696174546f6b656e56325f323a2042616c616e636520657863656564732028325e323535202d20312946696174546f6b656e3a206275726e20616d6f756e7420657863656564732062616c616e636546696174546f6b656e3a2063616c6c6572206973206e6f742061206d696e74657246696174546f6b656e3a206e6577206d61737465724d696e74657220697320746865207a65726f2061646472657373526573637561626c653a2063616c6c6572206973206e6f7420746865207265736375657245524332303a207472616e7366657220616d6f756e74206578636565647320616c6c6f77616e636546696174546f6b656e3a206e657720626c61636b6c697374657220697320746865207a65726f206164647265737346696174546f6b656e56323a2063616c6c6572206d7573742062652074686520706179656546696174546f6b656e3a20636f6e747261637420697320616c726561647920696e697469616c697a656445524332303a207472616e736665722066726f6d20746865207a65726f206164647265737345524332303a20617070726f76652066726f6d20746865207a65726f206164647265737346696174546f6b656e3a206d696e7420616d6f756e742065786365656473206d696e746572416c6c6f77616e63655061757361626c653a2063616c6c6572206973206e6f7420746865207061757365725361666545524332303a204552433230206f7065726174696f6e20646964206e6f74207375636365656446696174546f6b656e3a206e6577206f776e657220697320746865207a65726f206164647265737346696174546f6b656e56323a20617574686f72697a6174696f6e2069732075736564206f722063616e63656c6564426c61636b6c69737461626c653a206e657720626c61636b6c697374657220697320746865207a65726f2061646472657373426c61636b6c69737461626c653a206163636f756e7420697320626c61636b6c697374656446696174546f6b656e56323a20617574686f72697a6174696f6e206973206578706972656445524332303a2064656372656173656420616c6c6f77616e63652062656c6f77207a65726fa264697066735822122081cd59eb93c02e0d8655272bccab9ec37e70fba58c68965487c935e3f510727a64736f6c634300060c0033","linkReferences":{"contracts/util/SignatureChecker.sol":{"SignatureChecker":[{"start":18494,"length":20},{"start":20209,"length":20}]}}},"methodIdentifiers":{"CANCEL_AUTHORIZATION_TYPEHASH()":"d9169487","DOMAIN_SEPARATOR()":"3644e515","PERMIT_TYPEHASH()":"30adf81f","RECEIVE_WITH_AUTHORIZATION_TYPEHASH()":"7f2eecc3","TRANSFER_WITH_AUTHORIZATION_TYPEHASH()":"a0cc6a68","allowance(address,address)":"dd62ed3e","approve(address,uint256)":"095ea7b3","authorizationState(address,bytes32)":"e94a0102","balanceOf(address)":"70a08231","blacklist(address)":"f9f92be4","blacklister()":"bd102430","burn(uint256)":"42966c68","cancelAuthorization(address,bytes32,bytes)":"b7b72899","cancelAuthorization(address,bytes32,uint8,bytes32,bytes32)":"5a049a70","configureMinter(address,uint256)":"4e44d956","currency()":"e5a6b10f","decimals()":"313ce567","decreaseAllowance(address,uint256)":"a457c2d7","increaseAllowance(address,uint256)":"39509351","initialize(string,string,string,uint8,address,address,address,address)":"3357162b","initializeV2(string)":"d608ea64","initializeV2_1(address)":"2fc81e09","initializeV2_2(address[],string)":"430239b4","isBlacklisted(address)":"fe575a87","isMinter(address)":"aa271e1a","masterMinter()":"35d99f35","mint(address,uint256)":"40c10f19","minterAllowance(address)":"8a6db9c3","name()":"06fdde03","nonces(address)":"7ecebe00","owner()":"8da5cb5b","pause()":"8456cb59","paused()":"5c975abb","pauser()":"9fd0506d","permit(address,address,uint256,uint256,bytes)":"9fd5a6cf","permit(address,address,uint256,uint256,uint8,bytes32,bytes32)":"d505accf","receiveWithAuthorization(address,address,uint256,uint256,uint256,bytes32,bytes)":"88b7ab63","receiveWithAuthorization(address,address,uint256,uint256,uint256,bytes32,uint8,bytes32,bytes32)":"ef55bec6","removeMinter(address)":"3092afd5","rescueERC20(address,address,uint256)":"b2118a8d","rescuer()":"38a63183","symbol()":"95d89b41","totalSupply()":"18160ddd","transfer(address,uint256)":"a9059cbb","transferFrom(address,address,uint256)":"23b872dd","transferOwnership(address)":"f2fde38b","transferWithAuthorization(address,address,uint256,uint256,uint256,bytes32,bytes)":"cf092995","transferWithAuthorization(address,address,uint256,uint256,uint256,bytes32,uint8,bytes32,bytes32)":"e3ee160e","unBlacklist(address)":"1a895266","unpause()":"3f4ba83a","updateBlacklister(address)":"ad38bf22","updateMasterMinter(address)":"aa20e1e4","updatePauser(address)":"554bab3c","updateRescuer(address)":"2ab60045","version()":"54fd4d50"},"id":46}